{
  "contractName": "FundraiserFactory",
  "abi": [
    {
      "anonymous": false,
      "inputs": [
        {
          "indexed": true,
          "internalType": "contract Fundraiser",
          "name": "fundraiser",
          "type": "address"
        },
        {
          "indexed": true,
          "internalType": "address",
          "name": "owner",
          "type": "address"
        }
      ],
      "name": "FundraiserCreated",
      "type": "event"
    },
    {
      "inputs": [],
      "name": "fundraisersCount",
      "outputs": [
        {
          "internalType": "uint256",
          "name": "",
          "type": "uint256"
        }
      ],
      "stateMutability": "view",
      "type": "function",
      "constant": true
    },
    {
      "inputs": [
        {
          "internalType": "string",
          "name": "name",
          "type": "string"
        },
        {
          "internalType": "string",
          "name": "url",
          "type": "string"
        },
        {
          "internalType": "string",
          "name": "imageURL",
          "type": "string"
        },
        {
          "internalType": "string",
          "name": "description",
          "type": "string"
        },
        {
          "internalType": "address payable",
          "name": "beneficiary",
          "type": "address"
        }
      ],
      "name": "createFundrasier",
      "outputs": [],
      "stateMutability": "nonpayable",
      "type": "function"
    },
    {
      "inputs": [
        {
          "internalType": "uint256",
          "name": "limit",
          "type": "uint256"
        },
        {
          "internalType": "uint256",
          "name": "offset",
          "type": "uint256"
        }
      ],
      "name": "fundraisers",
      "outputs": [
        {
          "internalType": "contract Fundraiser[]",
          "name": "collection",
          "type": "address[]"
        }
      ],
      "stateMutability": "view",
      "type": "function",
      "constant": true
    }
  ],
  "bytecode": "0x608060405234801561001057600080fd5b506128ad806100206000396000f3fe60806040523480156200001157600080fd5b5060043610620000465760003560e01c80633fcc7200146200004b578063704914f8146200006b5780639d3b435514620000a1575b600080fd5b620000696004803603810190620000639190620005e1565b620000c3565b005b62000089600480360381019062000083919062000720565b62000240565b6040516200009891906200088f565b60405180910390f35b620000ab620003ec565b604051620000ba9190620008c4565b60405180910390f35b6000858585858533604051620000d990620003f8565b620000ea96959493929190620009aa565b604051809103906000f08015801562000107573d6000803e3d6000fd5b5090506000819080600181540180825580915050600190039060005260206000200160009091909190916101000a81548173ffffffffffffffffffffffffffffffffffffffff021916908373ffffffffffffffffffffffffffffffffffffffff1602179055508073ffffffffffffffffffffffffffffffffffffffff16638da5cb5b6040518163ffffffff1660e01b8152600401602060405180830381865afa158015620001b9573d6000803e3d6000fd5b505050506040513d601f19601f82011682018060405250810190620001df919062000a64565b73ffffffffffffffffffffffffffffffffffffffff168173ffffffffffffffffffffffffffffffffffffffff167fa2398daac0c8053a1e3c0280916c2ec6bc884f0959c27e639a4db829b7eabfb160405160405180910390a3505050505050565b60606200024c620003ec565b82111562000291576040517f08c379a0000000000000000000000000000000000000000000000000000000008152600401620002889062000ae6565b60405180910390fd5b6000826200029e620003ec565b620002aa919062000b37565b9050838110620002bb5783620002bd565b805b905060148110620002d0576014620002d2565b805b90508067ffffffffffffffff811115620002f157620002f062000435565b5b604051908082528060200260200182016040528015620003205781602001602082028036833780820191505090505b50915060005b81811015620003e457600081856200033f919062000b72565b8154811062000353576200035262000bcf565b5b9060005260206000200160009054906101000a900473ffffffffffffffffffffffffffffffffffffffff1683828151811062000394576200039362000bcf565b5b602002602001019073ffffffffffffffffffffffffffffffffffffffff16908173ffffffffffffffffffffffffffffffffffffffff16815250508080620003db9062000bfe565b91505062000326565b505092915050565b60008080549050905090565b611c2b8062000c4d83390190565b6000604051905090565b600080fd5b600080fd5b600080fd5b600080fd5b6000601f19601f8301169050919050565b7f4e487b7100000000000000000000000000000000000000000000000000000000600052604160045260246000fd5b6200046f8262000424565b810181811067ffffffffffffffff8211171562000491576200049062000435565b5b80604052505050565b6000620004a662000406565b9050620004b4828262000464565b919050565b600067ffffffffffffffff821115620004d757620004d662000435565b5b620004e28262000424565b9050602081019050919050565b82818337600083830152505050565b6000620005156200050f84620004b9565b6200049a565b9050828152602081018484840111156200053457620005336200041f565b5b62000541848285620004ef565b509392505050565b600082601f8301126200056157620005606200041a565b5b813562000573848260208601620004fe565b91505092915050565b600073ffffffffffffffffffffffffffffffffffffffff82169050919050565b6000620005a9826200057c565b9050919050565b620005bb816200059c565b8114620005c757600080fd5b50565b600081359050620005db81620005b0565b92915050565b600080600080600060a086880312156200060057620005ff62000410565b5b600086013567ffffffffffffffff81111562000621576200062062000415565b5b6200062f8882890162000549565b955050602086013567ffffffffffffffff81111562000653576200065262000415565b5b620006618882890162000549565b945050604086013567ffffffffffffffff81111562000685576200068462000415565b5b620006938882890162000549565b935050606086013567ffffffffffffffff811115620006b757620006b662000415565b5b620006c58882890162000549565b9250506080620006d888828901620005ca565b9150509295509295909350565b6000819050919050565b620006fa81620006e5565b81146200070657600080fd5b50565b6000813590506200071a81620006ef565b92915050565b600080604083850312156200073a576200073962000410565b5b60006200074a8582860162000709565b92505060206200075d8582860162000709565b9150509250929050565b600081519050919050565b600082825260208201905092915050565b6000819050602082019050919050565b6000819050919050565b6000620007be620007b8620007b2846200057c565b62000793565b6200057c565b9050919050565b6000620007d2826200079d565b9050919050565b6000620007e682620007c5565b9050919050565b620007f881620007d9565b82525050565b60006200080c8383620007ed565b60208301905092915050565b6000602082019050919050565b6000620008328262000767565b6200083e818562000772565b93506200084b8362000783565b8060005b8381101562000882578151620008668882620007fe565b9750620008738362000818565b9250506001810190506200084f565b5085935050505092915050565b60006020820190508181036000830152620008ab818462000825565b905092915050565b620008be81620006e5565b82525050565b6000602082019050620008db6000830184620008b3565b92915050565b600081519050919050565b600082825260208201905092915050565b60005b838110156200091d57808201518184015260208101905062000900565b838111156200092d576000848401525b50505050565b60006200094082620008e1565b6200094c8185620008ec565b93506200095e818560208601620008fd565b620009698162000424565b840191505092915050565b6200097f816200059c565b82525050565b600062000992826200057c565b9050919050565b620009a48162000985565b82525050565b600060c0820190508181036000830152620009c6818962000933565b90508181036020830152620009dc818862000933565b90508181036040830152620009f2818762000933565b9050818103606083015262000a08818662000933565b905062000a19608083018562000974565b62000a2860a083018462000999565b979650505050505050565b62000a3e8162000985565b811462000a4a57600080fd5b50565b60008151905062000a5e8162000a33565b92915050565b60006020828403121562000a7d5762000a7c62000410565b5b600062000a8d8482850162000a4d565b91505092915050565b7f6f6666736574206f7574206f6620626f756e6473000000000000000000000000600082015250565b600062000ace601483620008ec565b915062000adb8262000a96565b602082019050919050565b6000602082019050818103600083015262000b018162000abf565b9050919050565b7f4e487b7100000000000000000000000000000000000000000000000000000000600052601160045260246000fd5b600062000b4482620006e5565b915062000b5183620006e5565b92508282101562000b675762000b6662000b08565b5b828203905092915050565b600062000b7f82620006e5565b915062000b8c83620006e5565b9250827fffffffffffffffffffffffffffffffffffffffffffffffffffffffffffffffff0382111562000bc45762000bc362000b08565b5b828201905092915050565b7f4e487b7100000000000000000000000000000000000000000000000000000000600052603260045260246000fd5b600062000c0b82620006e5565b91507fffffffffffffffffffffffffffffffffffffffffffffffffffffffffffffffff82141562000c415762000c4062000b08565b5b60018201905091905056fe60806040523480156200001157600080fd5b5060405162001c2b38038062001c2b83398181016040528101906200003791906200061b565b620000576200004b6200011960201b60201c565b6200012160201b60201c565b85600290805190602001906200006f92919062000324565b5084600390805190602001906200008892919062000324565b508360049080519060200190620000a192919062000324565b508260059080519060200190620000ba92919062000324565b5081600860006101000a81548173ffffffffffffffffffffffffffffffffffffffff021916908373ffffffffffffffffffffffffffffffffffffffff1602179055506200010d81620001e560201b60201c565b505050505050620008b3565b600033905090565b60008060009054906101000a900473ffffffffffffffffffffffffffffffffffffffff169050816000806101000a81548173ffffffffffffffffffffffffffffffffffffffff021916908373ffffffffffffffffffffffffffffffffffffffff1602179055508173ffffffffffffffffffffffffffffffffffffffff168173ffffffffffffffffffffffffffffffffffffffff167f8be0079c531659141344cd1fd0a4f28419497f9722a3daafe3b4186f6b6457e060405160405180910390a35050565b620001f56200011960201b60201c565b73ffffffffffffffffffffffffffffffffffffffff166200021b620002fb60201b60201c565b73ffffffffffffffffffffffffffffffffffffffff161462000274576040517f08c379a00000000000000000000000000000000000000000000000000000000081526004016200026b9062000794565b60405180910390fd5b600073ffffffffffffffffffffffffffffffffffffffff168173ffffffffffffffffffffffffffffffffffffffff161415620002e7576040517f08c379a0000000000000000000000000000000000000000000000000000000008152600401620002de906200082c565b60405180910390fd5b620002f8816200012160201b60201c565b50565b60008060009054906101000a900473ffffffffffffffffffffffffffffffffffffffff16905090565b82805462000332906200087d565b90600052602060002090601f016020900481019282620003565760008555620003a2565b82601f106200037157805160ff1916838001178555620003a2565b82800160010185558215620003a2579182015b82811115620003a157825182559160200191906001019062000384565b5b509050620003b19190620003b5565b5090565b5b80821115620003d0576000816000905550600101620003b6565b5090565b6000604051905090565b600080fd5b600080fd5b600080fd5b600080fd5b6000601f19601f8301169050919050565b7f4e487b7100000000000000000000000000000000000000000000000000000000600052604160045260246000fd5b6200043d82620003f2565b810181811067ffffffffffffffff821117156200045f576200045e62000403565b5b80604052505050565b600062000474620003d4565b905062000482828262000432565b919050565b600067ffffffffffffffff821115620004a557620004a462000403565b5b620004b082620003f2565b9050602081019050919050565b60005b83811015620004dd578082015181840152602081019050620004c0565b83811115620004ed576000848401525b50505050565b60006200050a620005048462000487565b62000468565b905082815260208101848484011115620005295762000528620003ed565b5b62000536848285620004bd565b509392505050565b600082601f830112620005565762000555620003e8565b5b815162000568848260208601620004f3565b91505092915050565b600073ffffffffffffffffffffffffffffffffffffffff82169050919050565b60006200059e8262000571565b9050919050565b620005b08162000591565b8114620005bc57600080fd5b50565b600081519050620005d081620005a5565b92915050565b6000620005e38262000571565b9050919050565b620005f581620005d6565b81146200060157600080fd5b50565b6000815190506200061581620005ea565b92915050565b60008060008060008060c087890312156200063b576200063a620003de565b5b600087015167ffffffffffffffff8111156200065c576200065b620003e3565b5b6200066a89828a016200053e565b965050602087015167ffffffffffffffff8111156200068e576200068d620003e3565b5b6200069c89828a016200053e565b955050604087015167ffffffffffffffff811115620006c057620006bf620003e3565b5b620006ce89828a016200053e565b945050606087015167ffffffffffffffff811115620006f257620006f1620003e3565b5b6200070089828a016200053e565b93505060806200071389828a01620005bf565b92505060a06200072689828a0162000604565b9150509295509295509295565b600082825260208201905092915050565b7f4f776e61626c653a2063616c6c6572206973206e6f7420746865206f776e6572600082015250565b60006200077c60208362000733565b9150620007898262000744565b602082019050919050565b60006020820190508181036000830152620007af816200076d565b9050919050565b7f4f776e61626c653a206e6577206f776e657220697320746865207a65726f206160008201527f6464726573730000000000000000000000000000000000000000000000000000602082015250565b60006200081460268362000733565b91506200082182620007b6565b604082019050919050565b60006020820190508181036000830152620008478162000805565b9050919050565b7f4e487b7100000000000000000000000000000000000000000000000000000000600052602260045260246000fd5b600060028204905060018216806200089657607f821691505b60208210811415620008ad57620008ac6200084e565b5b50919050565b61136880620008c36000396000f3fe6080604052600436106100f75760003560e01c80635600f04f1161008a578063b90497e011610059578063b90497e014610311578063de2ed8931461033c578063ed88c68e14610367578063f2fde38b1461037157610131565b80635600f04f14610279578063715018a6146102a45780637284e416146102bb5780638da5cb5b146102e657610131565b80631f522595116100c65780631f522595146101e1578063375b74c31461020c57806338af3eed146102375780633ccfd60b1461026257610131565b80630180b97c1461013657806306fdde03146101615780631a57f7b41461018c5780631c31f710146101b857610131565b36610131576101113460065461039a90919063ffffffff16565b6006819055506007600081548092919061012a90610dad565b9190505550005b600080fd5b34801561014257600080fd5b5061014b6103b0565b6040516101589190610e05565b60405180910390f35b34801561016d57600080fd5b506101766103fa565b6040516101839190610eb9565b60405180910390f35b34801561019857600080fd5b506101a1610488565b6040516101af929190610f99565b60405180910390f35b3480156101c457600080fd5b506101df60048036038101906101da9190611033565b6105fd565b005b3480156101ed57600080fd5b506101f66106bd565b6040516102039190610e05565b60405180910390f35b34801561021857600080fd5b506102216106c3565b60405161022e9190611081565b60405180910390f35b34801561024357600080fd5b5061024c6106e9565b60405161025991906110ab565b60405180910390f35b34801561026e57600080fd5b5061027761070f565b005b34801561028557600080fd5b5061028e610833565b60405161029b9190610eb9565b60405180910390f35b3480156102b057600080fd5b506102b96108c1565b005b3480156102c757600080fd5b506102d0610949565b6040516102dd9190610eb9565b60405180910390f35b3480156102f257600080fd5b506102fb6109d7565b6040516103089190611081565b60405180910390f35b34801561031d57600080fd5b50610326610a00565b6040516103339190610eb9565b60405180910390f35b34801561034857600080fd5b50610351610a8e565b60405161035e9190610e05565b60405180910390f35b61036f610a94565b005b34801561037d57600080fd5b50610398600480360381019061039391906110f2565b610bb0565b005b600081836103a8919061111f565b905092915050565b6000600160003373ffffffffffffffffffffffffffffffffffffffff1673ffffffffffffffffffffffffffffffffffffffff16815260200190815260200160002080549050905090565b60028054610407906111a4565b80601f0160208091040260200160405190810160405280929190818152602001828054610433906111a4565b80156104805780601f1061045557610100808354040283529160200191610480565b820191906000526020600020905b81548152906001019060200180831161046357829003601f168201915b505050505081565b60608060006104956103b0565b90508067ffffffffffffffff8111156104b1576104b06111d6565b5b6040519080825280602002602001820160405280156104df5781602001602082028036833780820191505090505b5092508067ffffffffffffffff8111156104fc576104fb6111d6565b5b60405190808252806020026020018201604052801561052a5781602001602082028036833780820191505090505b50915060005b818110156105f7576000600160003373ffffffffffffffffffffffffffffffffffffffff1673ffffffffffffffffffffffffffffffffffffffff168152602001908152602001600020828154811061058b5761058a611205565b5b9060005260206000209060020201905080600001548583815181106105b3576105b2611205565b5b60200260200101818152505080600101548483815181106105d7576105d6611205565b5b6020026020010181815250505080806105ef90610dad565b915050610530565b50509091565b610605610ca8565b73ffffffffffffffffffffffffffffffffffffffff166106236109d7565b73ffffffffffffffffffffffffffffffffffffffff1614610679576040517f08c379a000000000000000000000000000000000000000000000000000000000815260040161067090611280565b60405180910390fd5b80600860006101000a81548173ffffffffffffffffffffffffffffffffffffffff021916908373ffffffffffffffffffffffffffffffffffffffff16021790555050565b60075481565b600960009054906101000a900473ffffffffffffffffffffffffffffffffffffffff1681565b600860009054906101000a900473ffffffffffffffffffffffffffffffffffffffff1681565b610717610ca8565b73ffffffffffffffffffffffffffffffffffffffff166107356109d7565b73ffffffffffffffffffffffffffffffffffffffff161461078b576040517f08c379a000000000000000000000000000000000000000000000000000000000815260040161078290611280565b60405180910390fd5b6000479050600860009054906101000a900473ffffffffffffffffffffffffffffffffffffffff1673ffffffffffffffffffffffffffffffffffffffff166108fc829081150290604051600060405180830381858888f193505050501580156107f8573d6000803e3d6000fd5b507f5b6b431d4476a211bb7d41c20d1aab9ae2321deee0d20be3d9fc9b1093fa6e3d816040516108289190610e05565b60405180910390a150565b60038054610840906111a4565b80601f016020809104026020016040519081016040528092919081815260200182805461086c906111a4565b80156108b95780601f1061088e576101008083540402835291602001916108b9565b820191906000526020600020905b81548152906001019060200180831161089c57829003601f168201915b505050505081565b6108c9610ca8565b73ffffffffffffffffffffffffffffffffffffffff166108e76109d7565b73ffffffffffffffffffffffffffffffffffffffff161461093d576040517f08c379a000000000000000000000000000000000000000000000000000000000815260040161093490611280565b60405180910390fd5b6109476000610cb0565b565b60058054610956906111a4565b80601f0160208091040260200160405190810160405280929190818152602001828054610982906111a4565b80156109cf5780601f106109a4576101008083540402835291602001916109cf565b820191906000526020600020905b8154815290600101906020018083116109b257829003601f168201915b505050505081565b60008060009054906101000a900473ffffffffffffffffffffffffffffffffffffffff16905090565b60048054610a0d906111a4565b80601f0160208091040260200160405190810160405280929190818152602001828054610a39906111a4565b8015610a865780601f10610a5b57610100808354040283529160200191610a86565b820191906000526020600020905b815481529060010190602001808311610a6957829003601f168201915b505050505081565b60065481565b60006040518060400160405280348152602001428152509050600160003373ffffffffffffffffffffffffffffffffffffffff1673ffffffffffffffffffffffffffffffffffffffff16815260200190815260200160002081908060018154018082558091505060019003906000526020600020906002020160009091909190915060008201518160000155602082015181600101555050610b413460065461039a90919063ffffffff16565b60068190555060076000815480929190610b5a90610dad565b91905055503373ffffffffffffffffffffffffffffffffffffffff167f264f630d9efa0d07053a31163641d9fcc0adafc9d9e76f1c37c2ce3a558d2c5234604051610ba59190610e05565b60405180910390a250565b610bb8610ca8565b73ffffffffffffffffffffffffffffffffffffffff16610bd66109d7565b73ffffffffffffffffffffffffffffffffffffffff1614610c2c576040517f08c379a0000000000000000000000000000000000000000000000000000000008152600401610c2390611280565b60405180910390fd5b600073ffffffffffffffffffffffffffffffffffffffff168173ffffffffffffffffffffffffffffffffffffffff161415610c9c576040517f08c379a0000000000000000000000000000000000000000000000000000000008152600401610c9390611312565b60405180910390fd5b610ca581610cb0565b50565b600033905090565b60008060009054906101000a900473ffffffffffffffffffffffffffffffffffffffff169050816000806101000a81548173ffffffffffffffffffffffffffffffffffffffff021916908373ffffffffffffffffffffffffffffffffffffffff1602179055508173ffffffffffffffffffffffffffffffffffffffff168173ffffffffffffffffffffffffffffffffffffffff167f8be0079c531659141344cd1fd0a4f28419497f9722a3daafe3b4186f6b6457e060405160405180910390a35050565b7f4e487b7100000000000000000000000000000000000000000000000000000000600052601160045260246000fd5b6000819050919050565b6000610db882610da3565b91507fffffffffffffffffffffffffffffffffffffffffffffffffffffffffffffffff821415610deb57610dea610d74565b5b600182019050919050565b610dff81610da3565b82525050565b6000602082019050610e1a6000830184610df6565b92915050565b600081519050919050565b600082825260208201905092915050565b60005b83811015610e5a578082015181840152602081019050610e3f565b83811115610e69576000848401525b50505050565b6000601f19601f8301169050919050565b6000610e8b82610e20565b610e958185610e2b565b9350610ea5818560208601610e3c565b610eae81610e6f565b840191505092915050565b60006020820190508181036000830152610ed38184610e80565b905092915050565b600081519050919050565b600082825260208201905092915050565b6000819050602082019050919050565b610f1081610da3565b82525050565b6000610f228383610f07565b60208301905092915050565b6000602082019050919050565b6000610f4682610edb565b610f508185610ee6565b9350610f5b83610ef7565b8060005b83811015610f8c578151610f738882610f16565b9750610f7e83610f2e565b925050600181019050610f5f565b5085935050505092915050565b60006040820190508181036000830152610fb38185610f3b565b90508181036020830152610fc78184610f3b565b90509392505050565b600080fd5b600073ffffffffffffffffffffffffffffffffffffffff82169050919050565b600061100082610fd5565b9050919050565b61101081610ff5565b811461101b57600080fd5b50565b60008135905061102d81611007565b92915050565b60006020828403121561104957611048610fd0565b5b60006110578482850161101e565b91505092915050565b600061106b82610fd5565b9050919050565b61107b81611060565b82525050565b60006020820190506110966000830184611072565b92915050565b6110a581610ff5565b82525050565b60006020820190506110c0600083018461109c565b92915050565b6110cf81611060565b81146110da57600080fd5b50565b6000813590506110ec816110c6565b92915050565b60006020828403121561110857611107610fd0565b5b6000611116848285016110dd565b91505092915050565b600061112a82610da3565b915061113583610da3565b9250827fffffffffffffffffffffffffffffffffffffffffffffffffffffffffffffffff0382111561116a57611169610d74565b5b828201905092915050565b7f4e487b7100000000000000000000000000000000000000000000000000000000600052602260045260246000fd5b600060028204905060018216806111bc57607f821691505b602082108114156111d0576111cf611175565b5b50919050565b7f4e487b7100000000000000000000000000000000000000000000000000000000600052604160045260246000fd5b7f4e487b7100000000000000000000000000000000000000000000000000000000600052603260045260246000fd5b7f4f776e61626c653a2063616c6c6572206973206e6f7420746865206f776e6572600082015250565b600061126a602083610e2b565b915061127582611234565b602082019050919050565b600060208201905081810360008301526112998161125d565b9050919050565b7f4f776e61626c653a206e6577206f776e657220697320746865207a65726f206160008201527f6464726573730000000000000000000000000000000000000000000000000000602082015250565b60006112fc602683610e2b565b9150611307826112a0565b604082019050919050565b6000602082019050818103600083015261132b816112ef565b905091905056fea2646970667358221220af5d535f10e262ab56f2491b6f1ca079a4609dd22e348e29473d83057bb3cd1f64736f6c634300080a0033a2646970667358221220aff7a6b24a8c5f4e4dd41fb5b1f33514ae1c39e515e1c460c46f55f939fbf9c364736f6c634300080a0033",
  "immutableReferences": {},
  "source": "// SPDX-License-Identifier: MIT\npragma solidity >=0.4.22 <0.9.0;\n\nimport \"./Fundraiser.sol\";\n\ncontract FundraiserFactory {\n  Fundraiser[] private _fundraisers;\n  uint256 constant maxLimit = 20;\n\n  event FundraiserCreated(Fundraiser indexed fundraiser, address indexed owner);\n\n  function fundraisersCount() public view returns(uint256) {\n    return _fundraisers.length;\n  }\n\n  function createFundrasier(\n    string memory name,\n    string memory url,\n    string memory imageURL,\n    string memory description,\n    address payable beneficiary\n  ) public {\n    Fundraiser fundraiser = new Fundraiser(\n      name,\n      url,\n      imageURL,\n      description,\n      beneficiary,\n      msg.sender\n    );\n    _fundraisers.push(fundraiser);\n    emit FundraiserCreated(fundraiser, fundraiser.owner());\n  }\n\n  function fundraisers(uint256 limit, uint256 offset)\n    public\n    view\n    returns(Fundraiser[] memory collection)\n  {\n    require(offset <= fundraisersCount(), \"offset out of bounds\");\n\n    uint256 size = fundraisersCount() - offset;\n    size = size < limit ? size : limit;\n    size = size < maxLimit ? size : maxLimit;\n    collection = new Fundraiser[](size);\n    for(uint256 i = 0; i < size; i++){\n      collection[i] = _fundraisers[offset + i];\n    }\n    return collection;\n  }\n}\n",
  "sourcePath": "/Users/lowkeyrojo/fundraiser/contracts/FundrasierFactory.sol",
  "compiler": {
    "name": "solc",
    "version": "0.8.10+commit.fc410830.Emscripten.clang"
  },
  "schemaVersion": "3.4.3",
  "updatedAt": "2021-12-21T16:03:34.543Z",
  "networkType": "ethereum",
  "devdoc": {
    "kind": "dev",
    "methods": {},
    "version": 1
  },
  "userdoc": {
    "kind": "user",
    "methods": {},
    "version": 1
  }
}