{
  "contractName": "Fundraiser",
  "abi": [
    {
      "inputs": [
        {
          "internalType": "string",
          "name": "_name",
          "type": "string"
        },
        {
          "internalType": "string",
          "name": "_url",
          "type": "string"
        },
        {
          "internalType": "string",
          "name": "_imageURL",
          "type": "string"
        },
        {
          "internalType": "string",
          "name": "_description",
          "type": "string"
        },
        {
          "internalType": "address payable",
          "name": "_beneficiary",
          "type": "address"
        },
        {
          "internalType": "address",
          "name": "_custodian",
          "type": "address"
        }
      ],
      "stateMutability": "nonpayable",
      "type": "constructor"
    },
    {
      "anonymous": false,
      "inputs": [
        {
          "indexed": true,
          "internalType": "address",
          "name": "donor",
          "type": "address"
        },
        {
          "indexed": false,
          "internalType": "uint256",
          "name": "value",
          "type": "uint256"
        }
      ],
      "name": "DonationReceived",
      "type": "event"
    },
    {
      "anonymous": false,
      "inputs": [
        {
          "indexed": true,
          "internalType": "address",
          "name": "previousOwner",
          "type": "address"
        },
        {
          "indexed": true,
          "internalType": "address",
          "name": "newOwner",
          "type": "address"
        }
      ],
      "name": "OwnershipTransferred",
      "type": "event"
    },
    {
      "anonymous": false,
      "inputs": [
        {
          "indexed": false,
          "internalType": "uint256",
          "name": "amount",
          "type": "uint256"
        }
      ],
      "name": "Withdraw",
      "type": "event"
    },
    {
      "inputs": [],
      "name": "beneficiary",
      "outputs": [
        {
          "internalType": "address payable",
          "name": "",
          "type": "address"
        }
      ],
      "stateMutability": "view",
      "type": "function"
    },
    {
      "inputs": [],
      "name": "custodian",
      "outputs": [
        {
          "internalType": "address",
          "name": "",
          "type": "address"
        }
      ],
      "stateMutability": "view",
      "type": "function"
    },
    {
      "inputs": [],
      "name": "description",
      "outputs": [
        {
          "internalType": "string",
          "name": "",
          "type": "string"
        }
      ],
      "stateMutability": "view",
      "type": "function"
    },
    {
      "inputs": [],
      "name": "donationsCount",
      "outputs": [
        {
          "internalType": "uint256",
          "name": "",
          "type": "uint256"
        }
      ],
      "stateMutability": "view",
      "type": "function"
    },
    {
      "inputs": [],
      "name": "imageURL",
      "outputs": [
        {
          "internalType": "string",
          "name": "",
          "type": "string"
        }
      ],
      "stateMutability": "view",
      "type": "function"
    },
    {
      "inputs": [],
      "name": "name",
      "outputs": [
        {
          "internalType": "string",
          "name": "",
          "type": "string"
        }
      ],
      "stateMutability": "view",
      "type": "function"
    },
    {
      "inputs": [],
      "name": "owner",
      "outputs": [
        {
          "internalType": "address",
          "name": "",
          "type": "address"
        }
      ],
      "stateMutability": "view",
      "type": "function"
    },
    {
      "inputs": [],
      "name": "renounceOwnership",
      "outputs": [],
      "stateMutability": "nonpayable",
      "type": "function"
    },
    {
      "inputs": [],
      "name": "totalDonations",
      "outputs": [
        {
          "internalType": "uint256",
          "name": "",
          "type": "uint256"
        }
      ],
      "stateMutability": "view",
      "type": "function"
    },
    {
      "inputs": [
        {
          "internalType": "address",
          "name": "newOwner",
          "type": "address"
        }
      ],
      "name": "transferOwnership",
      "outputs": [],
      "stateMutability": "nonpayable",
      "type": "function"
    },
    {
      "inputs": [],
      "name": "url",
      "outputs": [
        {
          "internalType": "string",
          "name": "",
          "type": "string"
        }
      ],
      "stateMutability": "view",
      "type": "function"
    },
    {
      "stateMutability": "payable",
      "type": "receive"
    },
    {
      "inputs": [
        {
          "internalType": "address payable",
          "name": "_beneficiary",
          "type": "address"
        }
      ],
      "name": "setBeneficiary",
      "outputs": [],
      "stateMutability": "nonpayable",
      "type": "function"
    },
    {
      "inputs": [],
      "name": "myDonationsCount",
      "outputs": [
        {
          "internalType": "uint256",
          "name": "",
          "type": "uint256"
        }
      ],
      "stateMutability": "view",
      "type": "function"
    },
    {
      "inputs": [],
      "name": "donate",
      "outputs": [],
      "stateMutability": "payable",
      "type": "function"
    },
    {
      "inputs": [],
      "name": "myDonations",
      "outputs": [
        {
          "internalType": "uint256[]",
          "name": "values",
          "type": "uint256[]"
        },
        {
          "internalType": "uint256[]",
          "name": "dates",
          "type": "uint256[]"
        }
      ],
      "stateMutability": "view",
      "type": "function"
    },
    {
      "inputs": [],
      "name": "withdraw",
      "outputs": [],
      "stateMutability": "nonpayable",
      "type": "function"
    }
  ],
  "bytecode": "0x60806040523480156200001157600080fd5b5060405162001c2b38038062001c2b83398181016040528101906200003791906200061b565b620000576200004b6200011960201b60201c565b6200012160201b60201c565b85600290805190602001906200006f92919062000324565b5084600390805190602001906200008892919062000324565b508360049080519060200190620000a192919062000324565b508260059080519060200190620000ba92919062000324565b5081600860006101000a81548173ffffffffffffffffffffffffffffffffffffffff021916908373ffffffffffffffffffffffffffffffffffffffff1602179055506200010d81620001e560201b60201c565b505050505050620008b3565b600033905090565b60008060009054906101000a900473ffffffffffffffffffffffffffffffffffffffff169050816000806101000a81548173ffffffffffffffffffffffffffffffffffffffff021916908373ffffffffffffffffffffffffffffffffffffffff1602179055508173ffffffffffffffffffffffffffffffffffffffff168173ffffffffffffffffffffffffffffffffffffffff167f8be0079c531659141344cd1fd0a4f28419497f9722a3daafe3b4186f6b6457e060405160405180910390a35050565b620001f56200011960201b60201c565b73ffffffffffffffffffffffffffffffffffffffff166200021b620002fb60201b60201c565b73ffffffffffffffffffffffffffffffffffffffff161462000274576040517f08c379a00000000000000000000000000000000000000000000000000000000081526004016200026b9062000794565b60405180910390fd5b600073ffffffffffffffffffffffffffffffffffffffff168173ffffffffffffffffffffffffffffffffffffffff161415620002e7576040517f08c379a0000000000000000000000000000000000000000000000000000000008152600401620002de906200082c565b60405180910390fd5b620002f8816200012160201b60201c565b50565b60008060009054906101000a900473ffffffffffffffffffffffffffffffffffffffff16905090565b82805462000332906200087d565b90600052602060002090601f016020900481019282620003565760008555620003a2565b82601f106200037157805160ff1916838001178555620003a2565b82800160010185558215620003a2579182015b82811115620003a157825182559160200191906001019062000384565b5b509050620003b19190620003b5565b5090565b5b80821115620003d0576000816000905550600101620003b6565b5090565b6000604051905090565b600080fd5b600080fd5b600080fd5b600080fd5b6000601f19601f8301169050919050565b7f4e487b7100000000000000000000000000000000000000000000000000000000600052604160045260246000fd5b6200043d82620003f2565b810181811067ffffffffffffffff821117156200045f576200045e62000403565b5b80604052505050565b600062000474620003d4565b905062000482828262000432565b919050565b600067ffffffffffffffff821115620004a557620004a462000403565b5b620004b082620003f2565b9050602081019050919050565b60005b83811015620004dd578082015181840152602081019050620004c0565b83811115620004ed576000848401525b50505050565b60006200050a620005048462000487565b62000468565b905082815260208101848484011115620005295762000528620003ed565b5b62000536848285620004bd565b509392505050565b600082601f830112620005565762000555620003e8565b5b815162000568848260208601620004f3565b91505092915050565b600073ffffffffffffffffffffffffffffffffffffffff82169050919050565b60006200059e8262000571565b9050919050565b620005b08162000591565b8114620005bc57600080fd5b50565b600081519050620005d081620005a5565b92915050565b6000620005e38262000571565b9050919050565b620005f581620005d6565b81146200060157600080fd5b50565b6000815190506200061581620005ea565b92915050565b60008060008060008060c087890312156200063b576200063a620003de565b5b600087015167ffffffffffffffff8111156200065c576200065b620003e3565b5b6200066a89828a016200053e565b965050602087015167ffffffffffffffff8111156200068e576200068d620003e3565b5b6200069c89828a016200053e565b955050604087015167ffffffffffffffff811115620006c057620006bf620003e3565b5b620006ce89828a016200053e565b945050606087015167ffffffffffffffff811115620006f257620006f1620003e3565b5b6200070089828a016200053e565b93505060806200071389828a01620005bf565b92505060a06200072689828a0162000604565b9150509295509295509295565b600082825260208201905092915050565b7f4f776e61626c653a2063616c6c6572206973206e6f7420746865206f776e6572600082015250565b60006200077c60208362000733565b9150620007898262000744565b602082019050919050565b60006020820190508181036000830152620007af816200076d565b9050919050565b7f4f776e61626c653a206e6577206f776e657220697320746865207a65726f206160008201527f6464726573730000000000000000000000000000000000000000000000000000602082015250565b60006200081460268362000733565b91506200082182620007b6565b604082019050919050565b60006020820190508181036000830152620008478162000805565b9050919050565b7f4e487b7100000000000000000000000000000000000000000000000000000000600052602260045260246000fd5b600060028204905060018216806200089657607f821691505b60208210811415620008ad57620008ac6200084e565b5b50919050565b61136880620008c36000396000f3fe6080604052600436106100f75760003560e01c80635600f04f1161008a578063b90497e011610059578063b90497e014610311578063de2ed8931461033c578063ed88c68e14610367578063f2fde38b1461037157610131565b80635600f04f14610279578063715018a6146102a45780637284e416146102bb5780638da5cb5b146102e657610131565b80631f522595116100c65780631f522595146101e1578063375b74c31461020c57806338af3eed146102375780633ccfd60b1461026257610131565b80630180b97c1461013657806306fdde03146101615780631a57f7b41461018c5780631c31f710146101b857610131565b36610131576101113460065461039a90919063ffffffff16565b6006819055506007600081548092919061012a90610dad565b9190505550005b600080fd5b34801561014257600080fd5b5061014b6103b0565b6040516101589190610e05565b60405180910390f35b34801561016d57600080fd5b506101766103fa565b6040516101839190610eb9565b60405180910390f35b34801561019857600080fd5b506101a1610488565b6040516101af929190610f99565b60405180910390f35b3480156101c457600080fd5b506101df60048036038101906101da9190611033565b6105fd565b005b3480156101ed57600080fd5b506101f66106bd565b6040516102039190610e05565b60405180910390f35b34801561021857600080fd5b506102216106c3565b60405161022e9190611081565b60405180910390f35b34801561024357600080fd5b5061024c6106e9565b60405161025991906110ab565b60405180910390f35b34801561026e57600080fd5b5061027761070f565b005b34801561028557600080fd5b5061028e610833565b60405161029b9190610eb9565b60405180910390f35b3480156102b057600080fd5b506102b96108c1565b005b3480156102c757600080fd5b506102d0610949565b6040516102dd9190610eb9565b60405180910390f35b3480156102f257600080fd5b506102fb6109d7565b6040516103089190611081565b60405180910390f35b34801561031d57600080fd5b50610326610a00565b6040516103339190610eb9565b60405180910390f35b34801561034857600080fd5b50610351610a8e565b60405161035e9190610e05565b60405180910390f35b61036f610a94565b005b34801561037d57600080fd5b50610398600480360381019061039391906110f2565b610bb0565b005b600081836103a8919061111f565b905092915050565b6000600160003373ffffffffffffffffffffffffffffffffffffffff1673ffffffffffffffffffffffffffffffffffffffff16815260200190815260200160002080549050905090565b60028054610407906111a4565b80601f0160208091040260200160405190810160405280929190818152602001828054610433906111a4565b80156104805780601f1061045557610100808354040283529160200191610480565b820191906000526020600020905b81548152906001019060200180831161046357829003601f168201915b505050505081565b60608060006104956103b0565b90508067ffffffffffffffff8111156104b1576104b06111d6565b5b6040519080825280602002602001820160405280156104df5781602001602082028036833780820191505090505b5092508067ffffffffffffffff8111156104fc576104fb6111d6565b5b60405190808252806020026020018201604052801561052a5781602001602082028036833780820191505090505b50915060005b818110156105f7576000600160003373ffffffffffffffffffffffffffffffffffffffff1673ffffffffffffffffffffffffffffffffffffffff168152602001908152602001600020828154811061058b5761058a611205565b5b9060005260206000209060020201905080600001548583815181106105b3576105b2611205565b5b60200260200101818152505080600101548483815181106105d7576105d6611205565b5b6020026020010181815250505080806105ef90610dad565b915050610530565b50509091565b610605610ca8565b73ffffffffffffffffffffffffffffffffffffffff166106236109d7565b73ffffffffffffffffffffffffffffffffffffffff1614610679576040517f08c379a000000000000000000000000000000000000000000000000000000000815260040161067090611280565b60405180910390fd5b80600860006101000a81548173ffffffffffffffffffffffffffffffffffffffff021916908373ffffffffffffffffffffffffffffffffffffffff16021790555050565b60075481565b600960009054906101000a900473ffffffffffffffffffffffffffffffffffffffff1681565b600860009054906101000a900473ffffffffffffffffffffffffffffffffffffffff1681565b610717610ca8565b73ffffffffffffffffffffffffffffffffffffffff166107356109d7565b73ffffffffffffffffffffffffffffffffffffffff161461078b576040517f08c379a000000000000000000000000000000000000000000000000000000000815260040161078290611280565b60405180910390fd5b6000479050600860009054906101000a900473ffffffffffffffffffffffffffffffffffffffff1673ffffffffffffffffffffffffffffffffffffffff166108fc829081150290604051600060405180830381858888f193505050501580156107f8573d6000803e3d6000fd5b507f5b6b431d4476a211bb7d41c20d1aab9ae2321deee0d20be3d9fc9b1093fa6e3d816040516108289190610e05565b60405180910390a150565b60038054610840906111a4565b80601f016020809104026020016040519081016040528092919081815260200182805461086c906111a4565b80156108b95780601f1061088e576101008083540402835291602001916108b9565b820191906000526020600020905b81548152906001019060200180831161089c57829003601f168201915b505050505081565b6108c9610ca8565b73ffffffffffffffffffffffffffffffffffffffff166108e76109d7565b73ffffffffffffffffffffffffffffffffffffffff161461093d576040517f08c379a000000000000000000000000000000000000000000000000000000000815260040161093490611280565b60405180910390fd5b6109476000610cb0565b565b60058054610956906111a4565b80601f0160208091040260200160405190810160405280929190818152602001828054610982906111a4565b80156109cf5780601f106109a4576101008083540402835291602001916109cf565b820191906000526020600020905b8154815290600101906020018083116109b257829003601f168201915b505050505081565b60008060009054906101000a900473ffffffffffffffffffffffffffffffffffffffff16905090565b60048054610a0d906111a4565b80601f0160208091040260200160405190810160405280929190818152602001828054610a39906111a4565b8015610a865780601f10610a5b57610100808354040283529160200191610a86565b820191906000526020600020905b815481529060010190602001808311610a6957829003601f168201915b505050505081565b60065481565b60006040518060400160405280348152602001428152509050600160003373ffffffffffffffffffffffffffffffffffffffff1673ffffffffffffffffffffffffffffffffffffffff16815260200190815260200160002081908060018154018082558091505060019003906000526020600020906002020160009091909190915060008201518160000155602082015181600101555050610b413460065461039a90919063ffffffff16565b60068190555060076000815480929190610b5a90610dad565b91905055503373ffffffffffffffffffffffffffffffffffffffff167f264f630d9efa0d07053a31163641d9fcc0adafc9d9e76f1c37c2ce3a558d2c5234604051610ba59190610e05565b60405180910390a250565b610bb8610ca8565b73ffffffffffffffffffffffffffffffffffffffff16610bd66109d7565b73ffffffffffffffffffffffffffffffffffffffff1614610c2c576040517f08c379a0000000000000000000000000000000000000000000000000000000008152600401610c2390611280565b60405180910390fd5b600073ffffffffffffffffffffffffffffffffffffffff168173ffffffffffffffffffffffffffffffffffffffff161415610c9c576040517f08c379a0000000000000000000000000000000000000000000000000000000008152600401610c9390611312565b60405180910390fd5b610ca581610cb0565b50565b600033905090565b60008060009054906101000a900473ffffffffffffffffffffffffffffffffffffffff169050816000806101000a81548173ffffffffffffffffffffffffffffffffffffffff021916908373ffffffffffffffffffffffffffffffffffffffff1602179055508173ffffffffffffffffffffffffffffffffffffffff168173ffffffffffffffffffffffffffffffffffffffff167f8be0079c531659141344cd1fd0a4f28419497f9722a3daafe3b4186f6b6457e060405160405180910390a35050565b7f4e487b7100000000000000000000000000000000000000000000000000000000600052601160045260246000fd5b6000819050919050565b6000610db882610da3565b91507fffffffffffffffffffffffffffffffffffffffffffffffffffffffffffffffff821415610deb57610dea610d74565b5b600182019050919050565b610dff81610da3565b82525050565b6000602082019050610e1a6000830184610df6565b92915050565b600081519050919050565b600082825260208201905092915050565b60005b83811015610e5a578082015181840152602081019050610e3f565b83811115610e69576000848401525b50505050565b6000601f19601f8301169050919050565b6000610e8b82610e20565b610e958185610e2b565b9350610ea5818560208601610e3c565b610eae81610e6f565b840191505092915050565b60006020820190508181036000830152610ed38184610e80565b905092915050565b600081519050919050565b600082825260208201905092915050565b6000819050602082019050919050565b610f1081610da3565b82525050565b6000610f228383610f07565b60208301905092915050565b6000602082019050919050565b6000610f4682610edb565b610f508185610ee6565b9350610f5b83610ef7565b8060005b83811015610f8c578151610f738882610f16565b9750610f7e83610f2e565b925050600181019050610f5f565b5085935050505092915050565b60006040820190508181036000830152610fb38185610f3b565b90508181036020830152610fc78184610f3b565b90509392505050565b600080fd5b600073ffffffffffffffffffffffffffffffffffffffff82169050919050565b600061100082610fd5565b9050919050565b61101081610ff5565b811461101b57600080fd5b50565b60008135905061102d81611007565b92915050565b60006020828403121561104957611048610fd0565b5b60006110578482850161101e565b91505092915050565b600061106b82610fd5565b9050919050565b61107b81611060565b82525050565b60006020820190506110966000830184611072565b92915050565b6110a581610ff5565b82525050565b60006020820190506110c0600083018461109c565b92915050565b6110cf81611060565b81146110da57600080fd5b50565b6000813590506110ec816110c6565b92915050565b60006020828403121561110857611107610fd0565b5b6000611116848285016110dd565b91505092915050565b600061112a82610da3565b915061113583610da3565b9250827fffffffffffffffffffffffffffffffffffffffffffffffffffffffffffffffff0382111561116a57611169610d74565b5b828201905092915050565b7f4e487b7100000000000000000000000000000000000000000000000000000000600052602260045260246000fd5b600060028204905060018216806111bc57607f821691505b602082108114156111d0576111cf611175565b5b50919050565b7f4e487b7100000000000000000000000000000000000000000000000000000000600052604160045260246000fd5b7f4e487b7100000000000000000000000000000000000000000000000000000000600052603260045260246000fd5b7f4f776e61626c653a2063616c6c6572206973206e6f7420746865206f776e6572600082015250565b600061126a602083610e2b565b915061127582611234565b602082019050919050565b600060208201905081810360008301526112998161125d565b9050919050565b7f4f776e61626c653a206e6577206f776e657220697320746865207a65726f206160008201527f6464726573730000000000000000000000000000000000000000000000000000602082015250565b60006112fc602683610e2b565b9150611307826112a0565b604082019050919050565b6000602082019050818103600083015261132b816112ef565b905091905056fea2646970667358221220445c84305b7462cc4d7a4e2eb185417b34b091845f44b9750908fb974fde9f8f64736f6c634300080a0033",
  "immutableReferences": {},
  "source": "// SPDX-License-Identifier: MIT\npragma solidity >=0.4.22 <0.9.0;\n\nimport \"openzeppelin-solidity/contracts/access/Ownable.sol\";\nimport \"openzeppelin-solidity/contracts/utils/math/SafeMath.sol\";\n\ncontract Fundraiser is Ownable {\n  using SafeMath for uint256;\n  struct Donation {\n    uint256 value;\n    uint256 date;\n  }\n  mapping(address => Donation[]) private _donations;\n\n  string public name;\n  string public url;\n  string public imageURL;\n  string public description;\n  uint256 public totalDonations;\n  uint256 public donationsCount;\n\n  address payable public beneficiary;\n  address public custodian;\n\n  event DonationReceived(address indexed donor, uint256 value);\n  event Withdraw(uint256 amount);\n\n  constructor(\n    string memory _name,\n    string memory _url,\n    string memory _imageURL,\n    string memory _description,\n    address payable _beneficiary,\n    address _custodian\n  ) {\n    name = _name;\n    url = _url;\n    imageURL = _imageURL;\n    description = _description;\n    beneficiary = _beneficiary;\n    transferOwnership(_custodian);\n  }\n\n  function setBeneficiary(address payable _beneficiary) public onlyOwner {\n    beneficiary = _beneficiary;\n  }\n\n  function myDonationsCount() public view returns(uint256){\n    return _donations[msg.sender].length;\n  }\n\n  function donate() public payable {\n    Donation memory donation = Donation({\n      value: msg.value,\n      date: block.timestamp\n    });\n    _donations[msg.sender].push(donation);\n    totalDonations = totalDonations.add(msg.value);\n    donationsCount++;\n\n    emit DonationReceived(msg.sender, msg.value);\n  }\n\n  function myDonations() public view returns(\n    uint256[] memory values,\n    uint256[] memory dates\n  ) {\n    uint256 count = myDonationsCount();\n    values = new uint256[](count);\n    dates = new uint256[](count);\n\n    for(uint256 i = 0; i < count; i++){\n      Donation storage donation = _donations[msg.sender][i];\n      values[i] = donation.value;\n      dates[i] = donation.date;\n    }\n\n    return (values, dates);\n  }\n\n  function withdraw() public onlyOwner{\n    uint256 balance = address(this).balance;\n    beneficiary.transfer(balance);\n    emit Withdraw(balance);\n  }\n\n  receive () external payable {\n    totalDonations = totalDonations.add(msg.value);\n    donationsCount++;\n  }\n}\n",
  "sourcePath": "/Users/lowkeyrojo/fundraiser-dapp/contracts/Fundraiser.sol",
  "compiler": {
    "name": "solc",
    "version": "0.8.10+commit.fc410830.Emscripten.clang"
  },
  "schemaVersion": "3.4.4",
  "updatedAt": "2021-12-26T18:04:08.358Z",
  "devdoc": {
    "kind": "dev",
    "methods": {
      "owner()": {
        "details": "Returns the address of the current owner."
      },
      "renounceOwnership()": {
        "details": "Leaves the contract without owner. It will not be possible to call `onlyOwner` functions anymore. Can only be called by the current owner. NOTE: Renouncing ownership will leave the contract without an owner, thereby removing any functionality that is only available to the owner."
      },
      "transferOwnership(address)": {
        "details": "Transfers ownership of the contract to a new account (`newOwner`). Can only be called by the current owner."
      }
    },
    "version": 1
  },
  "userdoc": {
    "kind": "user",
    "methods": {},
    "version": 1
  }
}